:100000000C945F000C9487000C9487000C94EF060E
:100010000C9487000C9487000C9487000C940405C2
:100020000C9487000C9487000C9487000C94870034
:100030000C9487000C9487000C9487000C94870024
:100040000C9486050C9487000C9487000C94870010
:100050000C9487000C9487000C9487000C94870004
:100060000C94D0050C9487000000000800020100E9
:100070000003040700000000000000000000000072
:10008000240027002A0001020408102040800102F9
:1000900004081020010204081020000000002500C0
:1000A00028002B00040404040404040402020202D5
:1000B000020203030303030302005B077E0E112405
:1000C0001FBECFEFD8E0DEBFCDBF23E0A0E8B2E097
:1000D00001C01D92AB35B207E1F712E0A0E0B1E03C
:1000E000E6E3F5E202C005900D92A038B107D9F71A
:1000F00010E0CEE5D0E004C02197FE010E949610EA
:10010000CD35D107C9F70E94D2070C948E120C94FA
:10011000000080916001823019F08F3F39F008951E
:10012000E8EBF0E0849187FF49C0089582E0809376
:100130006001E8EBF0E084918F3FB9F3813009F47E
:1001400079C020F1823079F71092B0001092B1009E
:100150009091B00092609093B0009091B100916046
:100160009093B100E6EAF0E0E491F0E0EE0FFF1FBB
:10017000E656FF4F2591349130932A0320932903AB
:10018000E8E8F0E0E491E093280318C014BC15BC43
:1001900084B5826084BD85B5816085BDE6EAF0E006
:1001A000E491F0E0EE0FFF1FE656FF4F859194912A
:1001B000E8E8F0E0E491E0932C0380E0E8E8F0E088
:1001C0009491E6EAF0E02491222399F030E0220FA6
:1001D000331FF901E458FF4FA591B491F901E65698
:1001E000FF4F259134912FB7F894EC91E92BEC93C4
:1001F0002FBF882309F43CC0823009F051C08091A0
:10020000B100887F83608093B10081EB8093B3005D
:1002100088E191E0A0E0B0E080932D0390932E035D
:10022000A0932F03B093300380917000826080937D
:1002300070007BCF1092800010928100909181001D
:1002400098609093810090918100916090938100DB
:10025000E6EAF0E0E491F0E0EE0FFF1FE656FF4F14
:1002600025913491E8E8F0E0E491E0932B03A6CFE8
:1002700085B5887F836085BD88E587BD88E191E08D
:10028000A0E0B0E08093350390933603A09337034A
:10029000B093380380916E00826080936E00089561
:1002A0008130F1F480918100887F816080938100AA
:1002B00081E596E1909389008093880088E191E040
:1002C000A0E0B0E08093310390933203A093330316
:1002D000B093340380916F00826080936F00089523
:1002E000823009F022CF81E591CF08950895AF9231
:1002F000BF92CF92DF92EF92FF920F931F93CF9313
:10030000DF936C017B018B01040F151FEB015E0174
:10031000AE18BF08C017D10759F06991D601ED9109
:10032000FC910190F081E02DC6010995892B79F7A8
:10033000C501DF91CF911F910F91FF90EF90DF905A
:10034000CF90BF90AF90089590E0FC01E859FF4F27
:100350002491FC01EA57FF4F3491FC01EC55FF4F0B
:10036000E491EE23C9F0222339F0233001F1A8F4FF
:10037000213019F1223029F1F0E0EE0FFF1FE6568F
:10038000FF4FA591B4918FB7F894EC91611126C0FD
:1003900030953E233C938FBF08952730A9F0283035
:1003A000C9F0243049F7809180008F7D03C080918F
:1003B00080008F7780938000DFCF84B58F7784BDF6
:1003C000DBCF84B58F7DFBCF8091B0008F7780939A
:1003D000B000D2CF8091B0008F7DF9CF3E2BDACF25
:1003E0003FB7F89480910C0390910D03A0910E03F8
:1003F000B0910F0326B5A89B05C02F3F19F00196B9
:10040000A11DB11D3FBFBA2FA92F982F8827BC016E
:10041000CD01620F711D811D911D42E0660F771F96
:10042000881F991F4A95D1F708958F929F92AF9296
:10043000BF92CF92DF92EF92FF924B015C010E943C
:10044000F0016B017C010E94F0016C197D098E099D
:100450009F09683E734081059105A8F321E0821A47
:100460009108A108B10888EEC80E83E0D81EE11CEF
:10047000F11C81149104A104B10429F7FF90EF90BD
:10048000DF90CF90BF90AF909F908F9008952FB73F
:10049000F894609108037091090380910A03909188
:1004A0000B032FBF0895089585ED8093BC008091C4
:1004B000BC0084FDFCCF1092160308952091BA026F
:1004C000260F3327331F23313105ECF42091160317
:1004D000FC0190E080E0243069F082E00895A09172
:1004E000BA022191AC0148555D4FA40FB52FB11D43
:1004F0002C930196861798F38091BA02680F609347
:10050000BA0280E0089581E008950895E0911A0309
:1005100080911903E81730F4F0E0E857FD4F80812F
:1005200090E008958FEF9FEF089590911A038091C6
:1005300019032FEF3FEF981748F4E92FF0E0E85741
:10054000FD4F208130E09F5F90931A03C901089509
:100550008091190390911A03891B990B0895CF92EA
:10056000DF92EF92FF920F931F93CF93DF937C0163
:10057000CB018A012091E502222389F0EB016B0176
:10058000C40ED51ECC15DD0569F06991D701ED913A
:10059000FC910190F081E02DC7010995F3CF642F04
:1005A0000E945E02C801DF91CF911F910F91FF90D1
:1005B000EF90DF90CF900895CF93DF931F92CDB748
:1005C000DEB769832091E5022223F9F02091170319
:1005D000203258F021E030E0FC013383228390E0A8
:1005E00080E00F90DF91CF91089580911803E82F5C
:1005F000F0E0EA51FD4F998190838F5F809318035B
:100600008093170381E090E0ECCF61E0CE0101968A
:100610000E945E02F7CFCF93FC01C48121E02093BA
:10062000E502C09306031092180310921703838506
:10063000682B89E393E00E94DC02909117039331C9
:1006400008F03FC0809116038111FCCF82E08093B7
:10065000160381E0809315038FEF8093E4021092DC
:10066000E3029093E202A6EEB2E0E0EDF2E080E079
:1006700098132FC01092CF028091CF02CC0FC82BBD
:10068000C093CF0280911403813039F51092140386
:100690008091CF028093BB008091BC0083FDF8CF96
:1006A00085EC8093BC00809116038230E1F3809149
:1006B000E4028F3F31F08091E402803211F08091AA
:1006C000E40210921803109217031092E502CF91E2
:1006D00008952D9121938F5FCBCF85EEE2CF90E0EF
:1006E00080E0089580912103811102C05C9A0895F1
:1006F000813011F45B9A0895823019F48BB18861CE
:100700008BB908950F931F93CF938C01C62F0E942E
:100710000B036C2F6460C8010E940B036C2F6B7F6E
:10072000C8010E940B0383EC90E00197F1F7CF9191
:100730001F910F9108950F931F93CF93DF938C0117
:10074000D62FC42F607F642B0E94820380E1D89F44
:10075000B00111246C2BC801DF91CF911F910F9133
:100760000C948203CF93DF93CDB7DEB728970FB6F3
:10077000F894DEBF0FBECDBF98E0E7E6F1E0DE0102
:10078000119601900D929A95E1F790915403961766
:1007900008F46FEF262F30E0220F331F41E050E0C6
:1007A0004C0F5D1F240F351FF9016081680F6068D1
:1007B00040E08BE493E028960FB6F894DEBF0FBEBE
:1007C000CDBFDF91CF910C949B0341E00E949B032E
:1007D00081E090E008950F931F93CF93DF938B01F7
:1007E00098E0899FB0011124606440E08BE493E0BD
:1007F0000E949B03E801085F1F4F69918BE493E01F
:100800000E94E503C017D107C1F7DF91CF911F9177
:100810000F910895FF920F931F93CF93DF9368E298
:1008200071E080E00E94EB0360E271E081E00E94F1
:10083000EB0368E171E082E00E94EB0360E171E0AC
:1008400083E00E94EB0361E872E084E00E94EB0326
:1008500061E872E085E00E94EB0368E071E086E009
:100860000E94EB0360E071E087E00E94EB03C0E0D0
:100870000FE0F02EFC1AD0E01F2D1D0F60E0812F3D
:100880000E94B2036D2F8BE493E00E94E50361E0C8
:10089000812F0E94B20364E06D0F8BE493E00E940D
:1008A000E503DF5FCD1740F760E08FE00E94B20301
:1008B0006C2F8BE493E00E94E50361E08FE00E94DF
:1008C000B20364E06C0F8BE493E00E94E50360E9FF
:1008D00071E080E090E00E941502CF5FC43049F6DD
:1008E00068E873E180E090E0DF91CF911F910F9174
:1008F000FF900C941502CF92DF92EF92FF920F932C
:100900001F93CF93DF93CDB7DEB7A1970FB6F894BF
:10091000DEBF0FBECDBF9C0150E040E019A28E01AA
:100920000F5D1F4F8AE0C82ED12CE12CF12CCA019B
:10093000B901A70196010E947410605DF8016293ED
:100940008F01211531054105510589F790E080E0BF
:10095000309761F001900020E9F73197AF01401B1B
:10096000510BB8018BE493E00E947701A1960FB67A
:10097000F894DEBF0FBECDBFDF91CF911F910F91D5
:10098000FF90EF90DF90CF900895FC010190002040
:10099000E9F73197AF01481B590BBC018BE493E099
:1009A0000C94770160E080E00E94B2038DE891E052
:1009B0000E94C50461E080E00E94B2038DE891E0EE
:1009C0000C94C5040E94D20460E086E00E94B20349
:1009D0008EE991E00E94C50461E081E00E94B203CB
:1009E00088E092E00E94C50461E086E00E94B203C4
:1009F00083EA91E00E94C50461E08BE00E94B203AB
:100A000088EA91E00C94C5041F920F920FB60F92E2
:100A100011242F933F934F935F936F937F938F9303
:100A20009F93AF93BF93EF93FF9380912D0390918A
:100A30002E03A0912F03B0913003892B8A2B8B2B8F
:100A4000D1F190912803E0912903F0912A0380814C
:100A50008927808380912D0390912E03A0912F03ED
:100A6000B0913003181619061A061B069CF48091E3
:100A70002D0390912E03A0912F03B0913003019785
:100A8000A109B10980932D0390932E03A0932F0306
:100A9000B0933003FF91EF91BF91AF919F918F91F0
:100AA0007F916F915F914F913F912F910F900FBE6A
:100AB0000F901F90189580916001E8EBF0E0E491B1
:100AC0009FEF90936001E13051F030F0E23069F037
:100AD00060E00E94A401DECF10926E00F9CF9091E9
:100AE0006F009D7F90936F00F3CF909170009D7F7A
:100AF0009093700091E09093B0009091B100987F36
:100B000094609093B1001092B300E2CF1F920F92C5
:100B10000FB60F9211242F933F938F939F93AF9310
:100B2000BF938091080390910903A0910A03B091AB
:100B30000B033091070323E0230F2D3758F501965F
:100B4000A11DB11D2093070380930803909309030F
:100B5000A0930A03B0930B0380910C0390910D03B3
:100B6000A0910E03B0910F030196A11DB11D8093BA
:100B70000C0390930D03A0930E03B0930F03BF914A
:100B8000AF919F918F913F912F910F900FBE0F903A
:100B90001F90189526E8230F0296A11DB11DD2CFF4
:100BA0001F920F920FB60F9211242F933F934F93E2
:100BB0005F936F937F938F939F93AF93BF93EF93C5
:100BC000FF938091B900887F803609F44AC0F0F520
:100BD000883209F4A7C018F5803109F49BC0B8F435
:100BE000882309F4F9C0883009F494C0FF91EF918B
:100BF000BF91AF919F918F917F916F915F914F9135
:100C00003F912F910F900FBE0F901F901895883134
:100C100009F488C0803251F78093E40214C0803414
:100C200009F49DC040F48033B9F38833F9F680931A
:100C3000E40285ECB0C0803509F485C0883509F43C
:100C400096C0883499F60E945402D0CF883909F4AE
:100C50008CC038F5883729F050F4883611F0803789
:100C600029F683E0809316031092CE0257C088388D
:100C700009F47BC0803919F0803809F0B7CF809132
:100C8000CE02823108F071C0E091CE0281E08E0F79
:100C90008093CE028091BB00F0E0E454FD4F80834E
:100CA0003DC0803B39F0E0F4803A09F479C0883ADD
:100CB00009F09CCF84E0809316031092BB0210923F
:100CC000BA02E0911203F091130309958091BA02E0
:100CD00081110FC081E08093BA021092A80209C06E
:100CE000803C09F4A6CF883C09F4A3CF883B09F0E7
:100CF0007DCFE091BB0281E08E0F8093BB02F0E0DC
:100D0000E855FD4F80818093BB009091BB0280919C
:100D1000BA0229C08091CF028093BB0085EC8093FA
:100D2000BC0064CF9091E3028091E202981758F5DD
:100D3000E091E30281E08E0F8093E302F0E0E05364
:100D4000FD4F8081E9CFE091E30281E08E0F809337
:100D5000E3028091BB00F0E0E053FD4F808390916F
:100D6000E3028091E2029817C8F285E8D8CFE091BB
:100D7000E30281E08E0F8093E3028091BB00F0E0FC
:100D8000E053FD4F80838091150381115CCF81E09A
:100D90008093140384EA8093BC001092160326CF3C
:100DA00085EC8093BC00109216038091CE028231B4
:100DB00030F4E091CE02F0E0E454FD4F10826091F7
:100DC000CE0270E0E0911003F09111038CEB92E001
:100DD00009951092CE020ACF1092E40234CF1F92EE
:100DE0000F920FB60F9211242F933F934F935F935F
:100DF0006F937F938F939F93AF93BF93EF93FF93E3
:100E000083B18770809380028091270380618093F3
:100E10002703809126038F5F809326038091270309
:100E20008B7F80932703809127038D7F80932703F7
:100E3000809126038330D8F080918002853041F183
:100E4000863071F1833099F4809123038F5F809312
:100E5000230380912303843018F081E080932303DF
:100E60000E948900809127038E7F80932703FF9142
:100E7000EF91BF91AF919F918F917F916F915F9112
:100E80004F913F912F910F900FBE0F901F9018958B
:100E90000E94890080912703826080932703E2CF1C
:100EA0000E948900809127038460809327038091AA
:100EB00027038160DACF10923C0310923B0388EE47
:100EC00093E0A0E0B0E080933D0390933E03A093B5
:100ED0003F03B093400383E791E090933A038093FC
:100EE000390310924E0310924D0385E891E09093E0
:100EF0004C0380934B0380E280934F0380E1809307
:100F0000530382E0809354031092550388E080934A
:100F10005603109246031092450310924803109214
:100F2000470310924A031092490361E170E090E098
:100F300080E00E94C111009701F1909346038093D5
:100F4000450320E130E0309348032093470320918C
:100F5000490330914A03232B11F4FC01108280E1F4
:100F600090E090934A03809349036DEA71E0809189
:100F70004503909146030C9487128091450390910C
:100F80004603009711F00E94381110924603109208
:100F9000450310924A03109249031092480310929D
:100FA00047030895789484B5826084BD84B58160D8
:100FB00084BD85B5826085BD85B5816085BD809124
:100FC0006E00816080936E0010928100809181009C
:100FD0008260809381008091810081608093810094
:100FE000809180008160809380008091B100846056
:100FF0008093B1008091B00081608093B0008091B7
:101000007A00846080937A0080917A008260809375
:101010007A0080917A00816080937A0080917A00D2
:10102000806880937A001092C10010921A03109287
:10103000190310921803109217031092160381E0FF
:10104000809315031092140361E082E10E94A401D1
:1010500061E083E10E94A4018091B9008E7F8093BA
:10106000B9008091B9008D7F8093B90080E28093B0
:10107000B80085E48093BC0085E791E0909313036A
:101080008093120386E791E09093110380931003FD
:101090001092500380915403823018F098E090939E
:1010A000500390915503992339F0813029F48091B0
:1010B000500384608093500362E370E080E090E02E
:1010C0000E941502609156038BE493E00E940B038B
:1010D00068EE73E080E090E00E94150260E38BE42C
:1010E00093E00E948203CBE4D6E4CE010197F1F7AE
:1010F00060E38BE493E00E9482032197F1F760E3C1
:101100008BE493E00E94820383E592E00197F1F77C
:1011100060E28BE493E00E9482036091500360627E
:1011200040E08BE493E00E949B0384E080935103B2
:1011300040E06CE08BE493E00E949B0340E061E0C0
:101140008BE493E00E949B03CBE3DFE1CE010197A8
:10115000F1F782E08093520340E066E08BE493E095
:101160000E949B0340E062E08BE493E00E949B03BB
:101170002197F1F784B1887F84B985B1876085B9FB
:101180008AB18C618AB9809168008160809368001F
:1011900080916B00876080936B00789468E571E0C4
:1011A00080E00E94EB0360E571E081E00E94EB03C8
:1011B00068E471E082E00E94EB0360E471E083E0A8
:1011C0000E94EB0368E371E084E00E94EB0360E3BC
:1011D00071E085E00E94EB030E94D20461E080E0B0
:1011E0000E94B203C0E07FE0F72EEF2CEC1A0C2F28
:1011F00010E08091490390914A030817190708F0FD
:101200004BC0D0E061E08E2D8D0F0E94B2038D2F78
:1012100090E02091490330914A038217930730F4FC
:10122000E0914503F0914603309781F510921B033E
:10123000EBE1F3E041E060818BE493E00E949B03EB
:10124000DF5FCD17F8F661E08FE00E94B203809176
:10125000490390914A030817190730F4E0914503B8
:10126000F09146033097A9F410921B03EBE1F3E0F1
:1012700041E060818BE493E00E949B0360E971E0B0
:1012800080E090E00E941502CF5FAFCFE80FF91F1A
:10129000D1CFE00FF11FECCFC0E00C2F10E0809118
:1012A000490390914A030817190770F561E08C2FE4
:1012B0000E94B2038CE991E00E94C50460E08C2F8B
:1012C0000E94B2038091490390914A0308171907BD
:1012D00030F4E0914503F0914603309791F4109279
:1012E0001B03EBE1F3E041E060818BE493E00E94BB
:1012F0009B0366E970E080E090E00E941502CF5FFA
:10130000CCCFE00FF11FEFCFD8E05FE0E52E0AE091
:101310006EE0F62ECFE04BEFC42ECD0ED02EDD1AB0
:1013200061E08C2F0E94B2036C2D8BE493E00E944D
:10133000E50361E08E2D8C1B0E94B2036D2D8BE4C2
:1013400093E00E94E5036CE271E080E090E00E948F
:1013500015021FEF1C0F1D136FC060E971E080E0E4
:1013600090E00E941502DC2FCB30A1F660ED77E013
:1013700080E090E00E94150261E084E00E94B203E8
:101380008EEB91E00E94C5040E940A04BB24B39432
:101390002CE3822E30E0C32E30E0D32EC4E099241B
:1013A0009394D2E080E4382E95E0A92E8091270313
:1013B00084FF9BC480912603833008F48CC4809101
:1013C000250381117DC080912303823009F447C039
:1013D000833009F45DC08130D1F41092240361E0C0
:1013E00085E00E94B2038CE991E00E94C50461E0AF
:1013F0008AE00E94B2038CE991E00E94C50461E09A
:1014000080E00E94B20387EC91E00E94C5048091C5
:10141000270382FDC09325038091240381114AC0D4
:101420008091270381FF4CC0B09225038091270350
:101430008D7F8093270344C061E08C2F0E94B2030C
:101440008CE991E00E94C50461E08F2D811B0E9410
:10145000B2038CE991E00E94C504C12F61CFA09234
:10146000240361E085E00E94B20387EC91E00E94D2
:10147000C50461E08AE00E94B2038CE991E00E9419
:10148000C50461E080E00E94B2038CE991E0BDCF29
:101490008AE08093240361E085E00E94B2038CE936
:1014A00091E00E94C50461E08AE00E94B20387ECEB
:1014B00091E0E5CF8530A1F48091270381FD1AC02A
:1014C00080912503823009F435C1B8F4813009F4E4
:1014D00041C0C114D10409F469CF0E94000061CF5A
:1014E0008A3071F78091270381FFEACF83E08093F0
:1014F00025039CCFD093250399CF833009F40FC3E4
:10150000843039F70E94D20460E082E00E94B20386
:101510008AE792E00E94C5048BB1877E8BB90E9456
:1015200047022B013C0110E08091270380FFB7C3E5
:101530000E9447026419750986099709603177424C
:101540008105910508F0ABC31111EECF0E94E204B2
:1015500011E0EACF0E94D20460E082E00E94B20370
:1015600089EC91E00E94C50461E083E00E94B2032F
:1015700084ED91E00E94C50460E273E080E090E0B9
:101580000E941502109223030E94D20460E082E0C0
:101590000E94B2038DED91E00E94C50461E082E0FB
:1015A0000E94B20389EE91E00E94C50461E088E0E8
:1015B0000E94B2038EEE91E00E94C50461E08CE0CF
:1015C0000E94B20381EF91E00E94C50417E0809170
:1015D0002303823009F450C0833009F466C081309F
:1015E000D1F48093220361E087E00E94B2038CE98A
:1015F00091E00E94C50461E08BE00E94B2038CE997
:1016000091E00E94C50461E081E00E94B20387EC92
:1016100091E00E94C5048091270390E082FF03C0FF
:10162000C093250391E080912203813009F04FC0DF
:101630008091270381FF4FC0109221030E94D204A2
:1016400060E081E00E94B20386EF91E00E94C50451
:1016500061E083E00E94B20381E392E00E94C5044E
:1016600060E273E080E090E00E9415028091270321
:101670008D7F8093270332C01093220361E087E0BF
:101680000E94B20387EC91E00E94C50461E08BE008
:101690000E94B2038CE991E00E94C50461E081E000
:1016A0000E94B2038CE991E0B4CF8BE080932203D7
:1016B00061E087E00E94B2038CE991E00E94C504DA
:1016C00061E08BE00E94B20387EC91E0E5CF8730C8
:1016D00061F08B30C9F0992309F479CF8091270309
:1016E00082FF21C0C0932503F4CE8091270381FFA0
:1016F000F2CFB09221030E94D20460E081E00E9408
:10170000B20382E092E0A2CF8091270381FFE3CF72
:10171000D09321030E94D20460E081E00E94B203D2
:101720008DE092E093CF109223030E94E204109286
:101730002503CFCE80912003811184C10E94D20461
:1017400060E082E00E94B2038AE192E00E94C50458
:1017500061E087E00E94B20385E292E00E94C50446
:101760008091270382FDC09325032AE030E040E00A
:1017700050E0BA0130927C0080917A0080648093BE
:101780007A0080917A0086FDFCCF9091780080915C
:101790007900892798278927092E000CAA0BBB0BF3
:1017A000480F591F6A1F7B1F2150310919F7CB01C0
:1017B000BA010E94870E20E030E040E251E40E942E
:1017C000D30F0E9445102091270322FDC0932503CB
:1017D00090E080E00E94870E23E93AE341E65FE370
:1017E0000E94C40E0E94451090E080E00E94870E87
:1017F00020E030E048EE51E40E94D30F0E944510F3
:101800009B01AC01AEE1B0E00E94820F2B0190E0A1
:1018100080E00E94870E20E030E040E752E40E9422
:10182000D30F0E94451070931F0360931E032091F5
:101830001E0330911F03829EC001839E900D1124D0
:10184000481A590A50921D0340921C0361E084E03B
:101850000E94B2038BE991E00E94C50461E089E037
:101860000E94B2038BE991E00E94C50461E084E02C
:101870000E94B20380911E0390911F030E947B047B
:1018800061E089E00E94B20380911C0390911D03E6
:101890000E947B0461E08CE00E94B20387E292E048
:1018A0000E94C5048091270382FFCAC0C09325030C
:1018B00081E09091270391FF3AC00E94D20460E03A
:1018C00080E00E94B2038BE292E00E94C50461E0D6
:1018D00087E00E94B20385E292E00E94C50461E0C5
:1018E00084E00E94B20380911E0390911F030E9426
:1018F0007B0461E089E00E94B20380911C03909117
:101900001D030E947B0461E08CE00E94B20387E229
:1019100092E00E94C50460E273E080E090E00E94E3
:101920001502809127038D7F8093270303C08823AE
:1019300009F41BCF0E94720300911C0310911D0338
:10194000E0901E03F0901F030E9447022B013C0110
:101950000115110549F48701E114F10429F021E092
:10196000E21AF1080CE310E02090270322FA222467
:1019700020F80E9447026419750986099709683E94
:1019800073408105910590F10150110929F4E1148A
:10199000F10411F42224239461E084E00E94B20354
:1019A0008BE991E00E94C50461E089E00E94B203E6
:1019B0008BE991E00E94C50461E084E00E94B203DB
:1019C000C7010E947B0461E089E00E94B203C80164
:1019D0000E947B0461E08CE00E94B20387E292E007
:1019E0000E94C5040E9447022B013C01222009F4F9
:1019F000AFCF8091270382FF59C0C09325038BB1DD
:101A0000877E8BB9109220030E9447022B013C0174
:101A10000E94470220912003AB01BC0144195509E3
:101A200066097709403C544D6140710518F4222342
:101A300009F457C0213009F066C0D093250349CD81
:101A400080E037CF8091270382FDC09325030E9459
:101A5000D20460E080E00E94B2038BE292E00E9438
:101A6000C50461E087E00E94B20385E292E00E9433
:101A7000C50461E084E00E94B20380911E0390914E
:101A80001F030E947B0461E089E00E94B203809101
:101A90001C0390911D030E947B0461E08CE00E9476
:101AA000B20387E292E00E94C50444CF0E94D204B0
:101AB00060E082E00E94B2038AE392E00E94C504E3
:101AC00061E081E00E94B20385E492E00E94C504D7
:101AD0005A9A6CED75E080E090E00E9415025A98E9
:101AE0008ECF8091270381FF07C0809127038D7FD0
:101AF00080932703909220038091270382FF88CF51
:101B0000C093200385CF243029F42093250310921D
:101B10002003DFCC0E94E2041092230308CE0E942F
:101B2000D20460E081E00E94B20384E592E00E946A
:101B3000C50461E084E00E94B20382E692E00E9464
:101B4000C50460E273E080E090E00E9415020E940C
:101B500072030E94D20460E081E00E94B20384E537
:101B600092E00E94C5040E9447022B013C01F12C27
:101B7000E12C10E000E08091270382FD48C00E9424
:101B800047026419750986099709683E7340810503
:101B9000910588F30F5F1F4F0C33110528F08FEF6D
:101BA000E81AF80A10E000E061E084E00E94B20365
:101BB0008BE991E00E94C50461E089E00E94B203D4
:101BC0008BE991E00E94C50461E084E00E94B203C9
:101BD000C7010E947B0461E087E00E94B20385E2B6
:101BE00092E00E94C50461E089E00E94B203C8014E
:101BF0000E947B0461E08CE00E94B20387E292E0E5
:101C00000E94C5040E9447022B013C01B4CF0E94F0
:101C1000D20460E080E00E94B2038AE692E00E9473
:101C2000C50461E084E00E94B2038BE991E00E9468
:101C3000C50461E089E00E94B2038BE991E00E9453
:101C4000C50461E084E00E94B203C7010E947B04E6
:101C500061E087E00E94B20385E292E00E94C50441
:101C600061E089E00E94B203C8010E947B0461E048
:101C70008CE00E94B20387E292E00E94C50468EB08
:101C80007BE080E090E00E9415028BB1877E8BB9EB
:101C900010922303109225030E94E2041ACC809133
:101CA000270380FD0AC010922503B0922303809180
:101CB00027038E7F809327030CCC1092250310926C
:101CC00026031092230310922003809127038F7E16
:101CD00080932703ECCF8091270383FDFACB0E94EA
:101CE000E204809127038860E5CF0E94D2040E941D
:101CF0000A048091270384FFECCBCECF809145036B
:101D000090914603009711F00C9438110895E894CF
:101D100009C097FB3EF490958095709561957F4F33
:101D20008F4F9F4F9923A9F0F92F96E9BB279395E1
:101D3000F695879577956795B795F111F8CFFAF4F1
:101D4000BB0F11F460FF1BC06F5F7F4F8F4F9F4F22
:101D500016C0882311F096E911C0772321F09EE880
:101D6000872F762F05C0662371F096E8862F70E0E6
:101D700060E02AF09A95660F771F881FDAF7880FC0
:101D80009695879597F908950E94D70E0C94480F61
:101D90000E943A0F38F00E94410F20F0952311F075
:101DA0000C94310F0C94370F11240C947C0F0E946B
:101DB000590F70F3959FC1F3950F50E0551F629F27
:101DC000F001729FBB27F00DB11D639FAA27F00D94
:101DD000B11DAA1F649F6627B00DA11D661F829FBB
:101DE0002227B00DA11D621F739FB00DA11D621FA0
:101DF000839FA00D611D221F749F3327A00D611DBD
:101E0000231F849F600D211D822F762F6A2F11249E
:101E10009F5750409AF0F1F088234AF0EE0FFF1FD1
:101E2000BB1F661F771F881F91505040A9F79E3F28
:101E3000510580F00C94310F0C947C0F5F3FE4F35C
:101E4000983ED4F3869577956795B795F795E7957E
:101E50009F5FC1F7FE2B880F911D9695879597F987
:101E6000089597F99F6780E870E060E008959FEF1C
:101E700080EC089500240A94161617061806090621
:101E8000089500240A9412161306140605060895F0
:101E9000092E0394000C11F4882352F0BB0F40F478
:101EA000BF2B11F460FF04C06F5F7F4F8F4F9F4FB8
:101EB000089557FD9058440F551F59F05F3F71F03A
:101EC0004795880F97FB991F61F09F3F79F08795A1
:101ED0000895121613061406551FF2CF4695F1DF2A
:101EE00008C0161617061806991FF1CF86957105BA
:101EF000610508940895E894BB2766277727CB01EE
:101F000097F908950E94C40FA59F900DB49F900D5E
:101F1000A49F800D911D112408952F923F924F92FE
:101F20005F926F927F928F929F92AF92BF92CF9269
:101F3000DF92EF92FF920F931F93CF93DF93CDB772
:101F4000DEB7CA1BDB0B0FB6F894DEBF0FBECDBFEA
:101F500009942A88398848885F846E847D848C84BB
:101F60009B84AA84B984C884DF80EE80FD800C81C4
:101F70001B81AA81B981CE0FD11D0FB6F894DEBFA7
:101F80000FBECDBFED010895A29FB001B39FC00168
:101F9000A39F700D811D1124911DB29F700D811D95
:101FA0001124911D08950E94E70F0C94480F0E9480
:101FB000410F58F00E943A0F40F029F45F3F29F09A
:101FC0000C94310F51110C947C0F0C94370F0E941C
:101FD000590F68F39923B1F3552391F3951B550BD2
:101FE000BB27AA2762177307840738F09F5F5F4FEC
:101FF000220F331F441FAA1FA9F335D00E2E3AF02B
:10200000E0E832D091505040E695001CCAF72BD042
:10201000FE2F29D0660F771F881FBB1F2617370793
:102020004807AB07B0E809F0BB0B802DBF01FF27C5
:1020300093585F4F3AF09E3F510578F00C94310F62
:102040000C947C0F5F3FE4F3983ED4F3869577952C
:102050006795B795F7959F5FC9F7880F911D96957E
:10206000879597F90895E1E0660F771F881FBB1FDA
:10207000621773078407BA0720F0621B730B840B87
:10208000BA0BEE1F88F7E09508950E94610F88F063
:102090009F5798F0B92F9927B751B0F0E1F0660F2C
:1020A000771F881F991F1AF0BA95C9F714C0B1306D
:1020B00091F00E947B0FB1E008950C947B0F672F85
:1020C000782F8827B85F39F0B93FCCF3869577959C
:1020D0006795B395D9F73EF4909580957095619585
:1020E0007F4F8F4F9F4F0895A1E21A2EAA1BBB1B53
:1020F000FD010DC0AA1FBB1FEE1FFF1FA217B307D4
:10210000E407F50720F0A21BB30BE40BF50B661FE9
:10211000771F881F991F1A9469F7609570958095AD
:1021200090959B01AC01BD01CF010895EE0FFF1FFB
:102130000590F491E02D09940F931F93CF93DF93B3
:102140008230910510F482E090E0E0915903F09123
:102150005A0330E020E0B0E0A0E0309799F4211578
:10216000310509F44AC0281B390B24303105D8F554
:102170008A819B816115710589F1FB0193838283BB
:10218000FE0111C040815181028113814817590716
:10219000E0F04817590799F4109761F012960C93E4
:1021A000129713961C933296CF01DF91CF911F9116
:1021B0000F9108950093590310935A03F4CF2115FA
:1021C000310551F04217530738F0A901DB019A019C
:1021D000BD01DF01F801C1CFEF01F9CF90935A03A0
:1021E00080935903CDCFFE01E20FF31F81939193AA
:1021F0002250310939832883D7CF2091570330915A
:102200005803232B41F420916301309164013093F2
:1022100058032093570320916101309162012115E9
:10222000310541F42DB73EB74091650150916601EB
:10223000241B350BE0915703F0915803E217F30785
:10224000A0F42E1B3F0B2817390778F0AC014E5F26
:102250005F4F2417350748F04E0F5F1F5093580308
:1022600040935703819391939FCFF0E0E0E09CCFA0
:10227000CF93DF930097E9F0FC013297138212822B
:10228000A0915903B0915A03ED0130E020E010977E
:10229000A1F420813181820F931F20915703309147
:1022A00058032817390709F061C0F0935803E093E9
:1022B0005703DF91CF910895EA01CE17DF07E8F5C4
:1022C0004A815B819E0141155105B1F7E901FB830C
:1022D000EA8349915991C40FD51FEC17FD0761F4AA
:1022E000808191810296840F951FE90199838883EB
:1022F000828193819B838A83F0E0E0E012968D9146
:102300009C9113970097B9F52D913C911197CD01B0
:102310000296820F931F209157033091580328177C
:10232000390739F6309751F510925A031092590334
:10233000B0935803A0935703BCCFD383C28340818B
:102340005181840F951FC817D90761F44E5F5F4F05
:1023500088819981480F591F518340838A819B81CD
:10236000938382832115310509F0B0CFF0935A038E
:10237000E09359039ECFFD01DC01C0CF138212828E
:10238000D7CFB0E0A0E0E7ECF1E10C948F0F8C0127
:10239000009751F4CB010E949C108C01C801CDB76D
:1023A000DEB7E0E10C94AB0FFC01E60FF71F9C01D8
:1023B00022503109E217F30708F49DC0D901CD91ED
:1023C000DC911197C617D70798F0C530D10530F3C7
:1023D000CE0104978617970708F3C61BD70B2297E1
:1023E000C193D1936D937C93CF010E943811D6CFC6
:1023F0005B01AC1ABD0A4C018C0E9D1EA0915903C5
:10240000B0915A03512C412CF12CE12C109731F54D
:1024100080915703909158038815990509F05CC085
:102420004616570608F058C08091610190916201EC
:10243000009741F48DB79EB74091650150916601B8
:10244000841B950BE817F90708F055C0F093580363
:10245000E0935703F90171836083A0CF8D919C9124
:10246000119712966C90129713967C901397A8155B
:10247000B90559F56C0142E0C40ED11CCA14DB0445
:1024800020F1AC014A195B09DA011296159780F028
:102490006282738251834083D9016D937C93E114EE
:1024A000F10471F0D7011396FC93EE93129776CF57
:1024B00022968C0F9D1FF90191838083F301EFCF4A
:1024C000F0935A03E093590369CF4816590608F46C
:1024D0002C017D01D3019ACFCB010E949C107C017D
:1024E000009749F0AE01B8010E947E12C8010E9417
:1024F0003811870153CF10E000E050CFFB01DC0121
:1025000002C001900D9241505040D8F70895FB0150
:10251000DC0101900D920020E1F7089510E0CEE576
:10252000D0E004C0FE010E9496102196CF35D1075D
:06253000C9F7F894FFCF8B
:102536000808040E0F1F0E041010080C16090000E0
:10254600040E1E1E1E1E1C18101815170D0703015B
:1025560000000314191402010002070F1F0F0702DF
:102566001F1F13151315131F1F1F19171717191FD1
:102576001F1F13151317171F1818181818191F1FC0
:10258600000E19191E180F061E19191E19191E00FC
:10259600FF00005B038000000040001400540000B0
:1025A600000000DC02AF026F038502A802950286D6
:1025B6000200000000E50377016F0353022020208C
:1025C60020202020202020202020202020004D45D3
:1025D6004E550054696D6500467265650045787014
:1025E6006F7375726520556E697420627900426555
:1025F6004C2020504342003E005349444520204D84
:102606004F44450053656C656374656400534944E3
:10261600452053454C45435400446F776E00557032
:1026260000426F746800426F74746F6D20534944A2
:102636004500546F702020205349444500426F7472
:102646006820202053494445730054696D65202055
:102656004D4F4445003A006D696E002054696D6522
:102666002073656C656374656400496E73756C618F
:1026760074696F6E00506572696F64206973204FCC
:1026860076657200467265652052756E204D4F4420
:10269600450053656C657465640053797374656DA4
:1026A600204F4E2053696E63650053544F5000000F
:00000001FF
